{
	"contracts/Gas.sol": {
		"Gas": {
			"abi": [
				{
					"inputs": [],
					"name": "forever",
					"outputs": [],
					"stateMutability": "nonpayable",
					"type": "function"
				},
				{
					"inputs": [],
					"name": "i",
					"outputs": [
						{
							"internalType": "uint256",
							"name": "",
							"type": "uint256"
						}
					],
					"stateMutability": "view",
					"type": "function"
				},
				{
					"inputs": [],
					"name": "x",
					"outputs": [
						{
							"internalType": "uint256",
							"name": "",
							"type": "uint256"
						}
					],
					"stateMutability": "view",
					"type": "function"
				}
			],
			"devdoc": {
				"kind": "dev",
				"methods": {},
				"version": 1
			},
			"evm": {
				"assembly": "    /* \"contracts/Gas.sol\":61:660  contract Gas {... */\n  mstore(0x40, 0x80)\n    /* \"contracts/Gas.sol\":100:101  0 */\n  0x00\n    /* \"contracts/Gas.sol\":81:101  uint256 public i = 0 */\n  dup1\n  sstore\n    /* \"contracts/Gas.sol\":127:128  1 */\n  0x01\n    /* \"contracts/Gas.sol\":108:128  uint256 public x = 1 */\n  dup1\n  sstore\n    /* \"contracts/Gas.sol\":61:660  contract Gas {... */\n  callvalue\n  dup1\n  iszero\n  tag_1\n  jumpi\n  0x00\n  dup1\n  revert\ntag_1:\n  pop\n  dataSize(sub_0)\n  dup1\n  dataOffset(sub_0)\n  0x00\n  codecopy\n  0x00\n  return\nstop\n\nsub_0: assembly {\n        /* \"contracts/Gas.sol\":61:660  contract Gas {... */\n      mstore(0x40, 0x80)\n      callvalue\n      dup1\n      iszero\n      tag_1\n      jumpi\n      0x00\n      dup1\n      revert\n    tag_1:\n      pop\n      jumpi(tag_2, lt(calldatasize, 0x04))\n      shr(0xe0, calldataload(0x00))\n      dup1\n      0x0c55699c\n      eq\n      tag_3\n      jumpi\n      dup1\n      0x9ff9a603\n      eq\n      tag_4\n      jumpi\n      dup1\n      0xe5aa3d58\n      eq\n      tag_5\n      jumpi\n    tag_2:\n      0x00\n      dup1\n      revert\n        /* \"contracts/Gas.sol\":108:128  uint256 public x = 1 */\n    tag_3:\n      tag_6\n      tag_7\n      jump\t// in\n    tag_6:\n      mload(0x40)\n      tag_8\n      swap2\n      swap1\n      tag_9\n      jump\t// in\n    tag_8:\n      mload(0x40)\n      dup1\n      swap2\n      sub\n      swap1\n      return\n        /* \"contracts/Gas.sol\":317:657  function forever() public {... */\n    tag_4:\n      tag_10\n      tag_11\n      jump\t// in\n    tag_10:\n      stop\n        /* \"contracts/Gas.sol\":81:101  uint256 public i = 0 */\n    tag_5:\n      tag_12\n      tag_13\n      jump\t// in\n    tag_12:\n      mload(0x40)\n      tag_14\n      swap2\n      swap1\n      tag_9\n      jump\t// in\n    tag_14:\n      mload(0x40)\n      dup1\n      swap2\n      sub\n      swap1\n      return\n        /* \"contracts/Gas.sol\":108:128  uint256 public x = 1 */\n    tag_7:\n      sload(0x01)\n      dup2\n      jump\t// out\n        /* \"contracts/Gas.sol\":317:657  function forever() public {... */\n    tag_11:\n        /* \"contracts/Gas.sol\":468:650  while (true) {... */\n    tag_16:\n        /* \"contracts/Gas.sol\":475:479  true */\n      0x01\n        /* \"contracts/Gas.sol\":468:650  while (true) {... */\n      iszero\n      tag_17\n      jumpi\n        /* \"contracts/Gas.sol\":504:505  2 */\n      0x02\n        /* \"contracts/Gas.sol\":500:501  x */\n      sload(0x01)\n        /* \"contracts/Gas.sol\":500:505  x * 2 */\n      tag_18\n      swap2\n      swap1\n      tag_19\n      jump\t// in\n    tag_18:\n        /* \"contracts/Gas.sol\":496:497  x */\n      0x01\n        /* \"contracts/Gas.sol\":496:505  x = x * 2 */\n      dup2\n      swap1\n      sstore\n      pop\n        /* \"contracts/Gas.sol\":553:554  3 */\n      0x03\n        /* \"contracts/Gas.sol\":549:550  x */\n      sload(0x01)\n        /* \"contracts/Gas.sol\":549:554  x / 3 */\n      tag_20\n      swap2\n      swap1\n      tag_21\n      jump\t// in\n    tag_20:\n        /* \"contracts/Gas.sol\":545:546  x */\n      0x01\n        /* \"contracts/Gas.sol\":545:554  x = x / 3 */\n      dup2\n      swap1\n      sstore\n      pop\n        /* \"contracts/Gas.sol\":602:603  1 */\n      0x01\n        /* \"contracts/Gas.sol\":597:598  i */\n      0x00\n      dup1\n        /* \"contracts/Gas.sol\":597:603  i += 1 */\n      dup3\n      dup3\n      sload\n      tag_22\n      swap2\n      swap1\n      tag_23\n      jump\t// in\n    tag_22:\n      swap3\n      pop\n      pop\n      dup2\n      swap1\n      sstore\n      pop\n        /* \"contracts/Gas.sol\":468:650  while (true) {... */\n      jump(tag_16)\n    tag_17:\n        /* \"contracts/Gas.sol\":317:657  function forever() public {... */\n      jump\t// out\n        /* \"contracts/Gas.sol\":81:101  uint256 public i = 0 */\n    tag_13:\n      sload(0x00)\n      dup2\n      jump\t// out\n        /* \"#utility.yul\":7:84   */\n    tag_24:\n        /* \"#utility.yul\":44:51   */\n      0x00\n        /* \"#utility.yul\":73:78   */\n      dup2\n        /* \"#utility.yul\":62:78   */\n      swap1\n      pop\n        /* \"#utility.yul\":7:84   */\n      swap2\n      swap1\n      pop\n      jump\t// out\n        /* \"#utility.yul\":90:208   */\n    tag_25:\n        /* \"#utility.yul\":177:201   */\n      tag_31\n        /* \"#utility.yul\":195:200   */\n      dup2\n        /* \"#utility.yul\":177:201   */\n      tag_24\n      jump\t// in\n    tag_31:\n        /* \"#utility.yul\":172:175   */\n      dup3\n        /* \"#utility.yul\":165:202   */\n      mstore\n        /* \"#utility.yul\":90:208   */\n      pop\n      pop\n      jump\t// out\n        /* \"#utility.yul\":214:436   */\n    tag_9:\n        /* \"#utility.yul\":307:311   */\n      0x00\n        /* \"#utility.yul\":345:347   */\n      0x20\n        /* \"#utility.yul\":334:343   */\n      dup3\n        /* \"#utility.yul\":330:348   */\n      add\n        /* \"#utility.yul\":322:348   */\n      swap1\n      pop\n        /* \"#utility.yul\":358:429   */\n      tag_33\n        /* \"#utility.yul\":426:427   */\n      0x00\n        /* \"#utility.yul\":415:424   */\n      dup4\n        /* \"#utility.yul\":411:428   */\n      add\n        /* \"#utility.yul\":402:408   */\n      dup5\n        /* \"#utility.yul\":358:429   */\n      tag_25\n      jump\t// in\n    tag_33:\n        /* \"#utility.yul\":214:436   */\n      swap3\n      swap2\n      pop\n      pop\n      jump\t// out\n        /* \"#utility.yul\":442:622   */\n    tag_26:\n        /* \"#utility.yul\":490:567   */\n      0x4e487b7100000000000000000000000000000000000000000000000000000000\n        /* \"#utility.yul\":487:488   */\n      0x00\n        /* \"#utility.yul\":480:568   */\n      mstore\n        /* \"#utility.yul\":587:591   */\n      0x11\n        /* \"#utility.yul\":584:585   */\n      0x04\n        /* \"#utility.yul\":577:592   */\n      mstore\n        /* \"#utility.yul\":611:615   */\n      0x24\n        /* \"#utility.yul\":608:609   */\n      0x00\n        /* \"#utility.yul\":601:616   */\n      revert\n        /* \"#utility.yul\":628:1038   */\n    tag_19:\n        /* \"#utility.yul\":668:675   */\n      0x00\n        /* \"#utility.yul\":691:711   */\n      tag_36\n        /* \"#utility.yul\":709:710   */\n      dup3\n        /* \"#utility.yul\":691:711   */\n      tag_24\n      jump\t// in\n    tag_36:\n        /* \"#utility.yul\":686:711   */\n      swap2\n      pop\n        /* \"#utility.yul\":725:745   */\n      tag_37\n        /* \"#utility.yul\":743:744   */\n      dup4\n        /* \"#utility.yul\":725:745   */\n      tag_24\n      jump\t// in\n    tag_37:\n        /* \"#utility.yul\":720:745   */\n      swap3\n      pop\n        /* \"#utility.yul\":780:781   */\n      dup3\n        /* \"#utility.yul\":777:778   */\n      dup3\n        /* \"#utility.yul\":773:782   */\n      mul\n        /* \"#utility.yul\":802:832   */\n      tag_38\n        /* \"#utility.yul\":820:831   */\n      dup2\n        /* \"#utility.yul\":802:832   */\n      tag_24\n      jump\t// in\n    tag_38:\n        /* \"#utility.yul\":791:832   */\n      swap2\n      pop\n        /* \"#utility.yul\":981:982   */\n      dup3\n        /* \"#utility.yul\":972:979   */\n      dup3\n        /* \"#utility.yul\":968:983   */\n      div\n        /* \"#utility.yul\":965:966   */\n      dup5\n        /* \"#utility.yul\":962:984   */\n      eq\n        /* \"#utility.yul\":942:943   */\n      dup4\n        /* \"#utility.yul\":935:944   */\n      iszero\n        /* \"#utility.yul\":915:998   */\n      or\n        /* \"#utility.yul\":892:1031   */\n      tag_39\n      jumpi\n        /* \"#utility.yul\":1011:1029   */\n      tag_40\n      tag_26\n      jump\t// in\n    tag_40:\n        /* \"#utility.yul\":892:1031   */\n    tag_39:\n        /* \"#utility.yul\":676:1038   */\n      pop\n        /* \"#utility.yul\":628:1038   */\n      swap3\n      swap2\n      pop\n      pop\n      jump\t// out\n        /* \"#utility.yul\":1044:1224   */\n    tag_27:\n        /* \"#utility.yul\":1092:1169   */\n      0x4e487b7100000000000000000000000000000000000000000000000000000000\n        /* \"#utility.yul\":1089:1090   */\n      0x00\n        /* \"#utility.yul\":1082:1170   */\n      mstore\n        /* \"#utility.yul\":1189:1193   */\n      0x12\n        /* \"#utility.yul\":1186:1187   */\n      0x04\n        /* \"#utility.yul\":1179:1194   */\n      mstore\n        /* \"#utility.yul\":1213:1217   */\n      0x24\n        /* \"#utility.yul\":1210:1211   */\n      0x00\n        /* \"#utility.yul\":1203:1218   */\n      revert\n        /* \"#utility.yul\":1230:1415   */\n    tag_21:\n        /* \"#utility.yul\":1270:1271   */\n      0x00\n        /* \"#utility.yul\":1287:1307   */\n      tag_43\n        /* \"#utility.yul\":1305:1306   */\n      dup3\n        /* \"#utility.yul\":1287:1307   */\n      tag_24\n      jump\t// in\n    tag_43:\n        /* \"#utility.yul\":1282:1307   */\n      swap2\n      pop\n        /* \"#utility.yul\":1321:1341   */\n      tag_44\n        /* \"#utility.yul\":1339:1340   */\n      dup4\n        /* \"#utility.yul\":1321:1341   */\n      tag_24\n      jump\t// in\n    tag_44:\n        /* \"#utility.yul\":1316:1341   */\n      swap3\n      pop\n        /* \"#utility.yul\":1360:1361   */\n      dup3\n        /* \"#utility.yul\":1350:1385   */\n      tag_45\n      jumpi\n        /* \"#utility.yul\":1365:1383   */\n      tag_46\n      tag_27\n      jump\t// in\n    tag_46:\n        /* \"#utility.yul\":1350:1385   */\n    tag_45:\n        /* \"#utility.yul\":1407:1408   */\n      dup3\n        /* \"#utility.yul\":1404:1405   */\n      dup3\n        /* \"#utility.yul\":1400:1409   */\n      div\n        /* \"#utility.yul\":1395:1409   */\n      swap1\n      pop\n        /* \"#utility.yul\":1230:1415   */\n      swap3\n      swap2\n      pop\n      pop\n      jump\t// out\n        /* \"#utility.yul\":1421:1612   */\n    tag_23:\n        /* \"#utility.yul\":1461:1464   */\n      0x00\n        /* \"#utility.yul\":1480:1500   */\n      tag_48\n        /* \"#utility.yul\":1498:1499   */\n      dup3\n        /* \"#utility.yul\":1480:1500   */\n      tag_24\n      jump\t// in\n    tag_48:\n        /* \"#utility.yul\":1475:1500   */\n      swap2\n      pop\n        /* \"#utility.yul\":1514:1534   */\n      tag_49\n        /* \"#utility.yul\":1532:1533   */\n      dup4\n        /* \"#utility.yul\":1514:1534   */\n      tag_24\n      jump\t// in\n    tag_49:\n        /* \"#utility.yul\":1509:1534   */\n      swap3\n      pop\n        /* \"#utility.yul\":1557:1558   */\n      dup3\n        /* \"#utility.yul\":1554:1555   */\n      dup3\n        /* \"#utility.yul\":1550:1559   */\n      add\n        /* \"#utility.yul\":1543:1559   */\n      swap1\n      pop\n        /* \"#utility.yul\":1578:1581   */\n      dup1\n        /* \"#utility.yul\":1575:1576   */\n      dup3\n        /* \"#utility.yul\":1572:1582   */\n      gt\n        /* \"#utility.yul\":1569:1605   */\n      iszero\n      tag_50\n      jumpi\n        /* \"#utility.yul\":1585:1603   */\n      tag_51\n      tag_26\n      jump\t// in\n    tag_51:\n        /* \"#utility.yul\":1569:1605   */\n    tag_50:\n        /* \"#utility.yul\":1421:1612   */\n      swap3\n      swap2\n      pop\n      pop\n      jump\t// out\n\n    auxdata: 0xa2646970667358221220702d014e9a2f0c0193f3db7b5653acaad8d448870f80fabfd9f9c3443ec1a5ff64736f6c634300081a0033\n}\n",
				"bytecode": {
					"linkReferences": {},
					"object": "60806040525f8055600180553480156015575f80fd5b5061024a806100235f395ff3fe608060405234801561000f575f80fd5b506004361061003f575f3560e01c80630c55699c146100435780639ff9a60314610061578063e5aa3d581461006b575b5f80fd5b61004b610089565b60405161005891906100fd565b60405180910390f35b61006961008f565b005b6100736100e0565b60405161008091906100fd565b60405180910390f35b60015481565b5b6001156100de5760026001546100a69190610143565b60018190555060036001546100bb91906101b1565b60018190555060015f808282546100d291906101e1565b92505081905550610090565b565b5f5481565b5f819050919050565b6100f7816100e5565b82525050565b5f6020820190506101105f8301846100ee565b92915050565b7f4e487b71000000000000000000000000000000000000000000000000000000005f52601160045260245ffd5b5f61014d826100e5565b9150610158836100e5565b9250828202610166816100e5565b9150828204841483151761017d5761017c610116565b5b5092915050565b7f4e487b71000000000000000000000000000000000000000000000000000000005f52601260045260245ffd5b5f6101bb826100e5565b91506101c6836100e5565b9250826101d6576101d5610184565b5b828204905092915050565b5f6101eb826100e5565b91506101f6836100e5565b925082820190508082111561020e5761020d610116565b5b9291505056fea2646970667358221220702d014e9a2f0c0193f3db7b5653acaad8d448870f80fabfd9f9c3443ec1a5ff64736f6c634300081a0033",
					"opcodes": "PUSH1 0x80 PUSH1 0x40 MSTORE PUSH0 DUP1 SSTORE PUSH1 0x1 DUP1 SSTORE CALLVALUE DUP1 ISZERO PUSH1 0x15 JUMPI PUSH0 DUP1 REVERT JUMPDEST POP PUSH2 0x24A DUP1 PUSH2 0x23 PUSH0 CODECOPY PUSH0 RETURN INVALID PUSH1 0x80 PUSH1 0x40 MSTORE CALLVALUE DUP1 ISZERO PUSH2 0xF JUMPI PUSH0 DUP1 REVERT JUMPDEST POP PUSH1 0x4 CALLDATASIZE LT PUSH2 0x3F JUMPI PUSH0 CALLDATALOAD PUSH1 0xE0 SHR DUP1 PUSH4 0xC55699C EQ PUSH2 0x43 JUMPI DUP1 PUSH4 0x9FF9A603 EQ PUSH2 0x61 JUMPI DUP1 PUSH4 0xE5AA3D58 EQ PUSH2 0x6B JUMPI JUMPDEST PUSH0 DUP1 REVERT JUMPDEST PUSH2 0x4B PUSH2 0x89 JUMP JUMPDEST PUSH1 0x40 MLOAD PUSH2 0x58 SWAP2 SWAP1 PUSH2 0xFD JUMP JUMPDEST PUSH1 0x40 MLOAD DUP1 SWAP2 SUB SWAP1 RETURN JUMPDEST PUSH2 0x69 PUSH2 0x8F JUMP JUMPDEST STOP JUMPDEST PUSH2 0x73 PUSH2 0xE0 JUMP JUMPDEST PUSH1 0x40 MLOAD PUSH2 0x80 SWAP2 SWAP1 PUSH2 0xFD JUMP JUMPDEST PUSH1 0x40 MLOAD DUP1 SWAP2 SUB SWAP1 RETURN JUMPDEST PUSH1 0x1 SLOAD DUP2 JUMP JUMPDEST JUMPDEST PUSH1 0x1 ISZERO PUSH2 0xDE JUMPI PUSH1 0x2 PUSH1 0x1 SLOAD PUSH2 0xA6 SWAP2 SWAP1 PUSH2 0x143 JUMP JUMPDEST PUSH1 0x1 DUP2 SWAP1 SSTORE POP PUSH1 0x3 PUSH1 0x1 SLOAD PUSH2 0xBB SWAP2 SWAP1 PUSH2 0x1B1 JUMP JUMPDEST PUSH1 0x1 DUP2 SWAP1 SSTORE POP PUSH1 0x1 PUSH0 DUP1 DUP3 DUP3 SLOAD PUSH2 0xD2 SWAP2 SWAP1 PUSH2 0x1E1 JUMP JUMPDEST SWAP3 POP POP DUP2 SWAP1 SSTORE POP PUSH2 0x90 JUMP JUMPDEST JUMP JUMPDEST PUSH0 SLOAD DUP2 JUMP JUMPDEST PUSH0 DUP2 SWAP1 POP SWAP2 SWAP1 POP JUMP JUMPDEST PUSH2 0xF7 DUP2 PUSH2 0xE5 JUMP JUMPDEST DUP3 MSTORE POP POP JUMP JUMPDEST PUSH0 PUSH1 0x20 DUP3 ADD SWAP1 POP PUSH2 0x110 PUSH0 DUP4 ADD DUP5 PUSH2 0xEE JUMP JUMPDEST SWAP3 SWAP2 POP POP JUMP JUMPDEST PUSH32 0x4E487B7100000000000000000000000000000000000000000000000000000000 PUSH0 MSTORE PUSH1 0x11 PUSH1 0x4 MSTORE PUSH1 0x24 PUSH0 REVERT JUMPDEST PUSH0 PUSH2 0x14D DUP3 PUSH2 0xE5 JUMP JUMPDEST SWAP2 POP PUSH2 0x158 DUP4 PUSH2 0xE5 JUMP JUMPDEST SWAP3 POP DUP3 DUP3 MUL PUSH2 0x166 DUP2 PUSH2 0xE5 JUMP JUMPDEST SWAP2 POP DUP3 DUP3 DIV DUP5 EQ DUP4 ISZERO OR PUSH2 0x17D JUMPI PUSH2 0x17C PUSH2 0x116 JUMP JUMPDEST JUMPDEST POP SWAP3 SWAP2 POP POP JUMP JUMPDEST PUSH32 0x4E487B7100000000000000000000000000000000000000000000000000000000 PUSH0 MSTORE PUSH1 0x12 PUSH1 0x4 MSTORE PUSH1 0x24 PUSH0 REVERT JUMPDEST PUSH0 PUSH2 0x1BB DUP3 PUSH2 0xE5 JUMP JUMPDEST SWAP2 POP PUSH2 0x1C6 DUP4 PUSH2 0xE5 JUMP JUMPDEST SWAP3 POP DUP3 PUSH2 0x1D6 JUMPI PUSH2 0x1D5 PUSH2 0x184 JUMP JUMPDEST JUMPDEST DUP3 DUP3 DIV SWAP1 POP SWAP3 SWAP2 POP POP JUMP JUMPDEST PUSH0 PUSH2 0x1EB DUP3 PUSH2 0xE5 JUMP JUMPDEST SWAP2 POP PUSH2 0x1F6 DUP4 PUSH2 0xE5 JUMP JUMPDEST SWAP3 POP DUP3 DUP3 ADD SWAP1 POP DUP1 DUP3 GT ISZERO PUSH2 0x20E JUMPI PUSH2 0x20D PUSH2 0x116 JUMP JUMPDEST JUMPDEST SWAP3 SWAP2 POP POP JUMP INVALID LOG2 PUSH5 0x6970667358 0x22 SLT KECCAK256 PUSH17 0x2D014E9A2F0C0193F3DB7B5653ACAAD8D4 BASEFEE DUP8 0xF DUP1 STATICCALL 0xBF 0xD9 0xF9 0xC3 PREVRANDAO RETURNDATACOPY 0xC1 0xA5 SELFDESTRUCT PUSH5 0x736F6C6343 STOP ADDMOD BYTE STOP CALLER "
				},
				"gasEstimates": {
					"creation": {
						"codeDepositCost": "117200",
						"executionCost": "27274",
						"totalCost": "144474"
					},
					"external": {
						"forever()": "infinite",
						"i()": "2446",
						"x()": "2403"
					}
				},
				"methodIdentifiers": {
					"forever()": "9ff9a603",
					"i()": "e5aa3d58",
					"x()": "0c55699c"
				}
			},
			"storageLayout": {
				"storage": [
					{
						"astId": 4,
						"contract": "contracts/Gas.sol:Gas",
						"label": "i",
						"offset": 0,
						"slot": "0",
						"type": "t_uint256"
					},
					{
						"astId": 7,
						"contract": "contracts/Gas.sol:Gas",
						"label": "x",
						"offset": 0,
						"slot": "1",
						"type": "t_uint256"
					}
				],
				"types": {
					"t_uint256": {
						"encoding": "inplace",
						"label": "uint256",
						"numberOfBytes": "32"
					}
				}
			},
			"userdoc": {
				"kind": "user",
				"methods": {},
				"version": 1
			}
		}
	}
}